{
  "address": "0x8448DAf99eA0b605162D4CC732e1d30136A29E48",
  "abi": [
    {
      "inputs": [
        {
          "internalType": "contract WETH9",
          "name": "weth_",
          "type": "address"
        },
        {
          "internalType": "contract CampOFTAdapter",
          "name": "oftAdapter_",
          "type": "address"
        }
      ],
      "stateMutability": "nonpayable",
      "type": "constructor"
    },
    {
      "inputs": [
        {
          "components": [
            {
              "internalType": "uint32",
              "name": "dstEid",
              "type": "uint32"
            },
            {
              "internalType": "bytes32",
              "name": "to",
              "type": "bytes32"
            },
            {
              "internalType": "uint256",
              "name": "amountLD",
              "type": "uint256"
            },
            {
              "internalType": "uint256",
              "name": "minAmountLD",
              "type": "uint256"
            },
            {
              "internalType": "bytes",
              "name": "extraOptions",
              "type": "bytes"
            },
            {
              "internalType": "bytes",
              "name": "composeMsg",
              "type": "bytes"
            },
            {
              "internalType": "bytes",
              "name": "oftCmd",
              "type": "bytes"
            }
          ],
          "internalType": "struct SendParam",
          "name": "_sendParam",
          "type": "tuple"
        },
        {
          "components": [
            {
              "internalType": "uint256",
              "name": "nativeFee",
              "type": "uint256"
            },
            {
              "internalType": "uint256",
              "name": "lzTokenFee",
              "type": "uint256"
            }
          ],
          "internalType": "struct MessagingFee",
          "name": "_fee",
          "type": "tuple"
        },
        {
          "internalType": "address",
          "name": "_refundAddress",
          "type": "address"
        }
      ],
      "name": "send",
      "outputs": [
        {
          "components": [
            {
              "internalType": "bytes32",
              "name": "guid",
              "type": "bytes32"
            },
            {
              "internalType": "uint64",
              "name": "nonce",
              "type": "uint64"
            },
            {
              "components": [
                {
                  "internalType": "uint256",
                  "name": "nativeFee",
                  "type": "uint256"
                },
                {
                  "internalType": "uint256",
                  "name": "lzTokenFee",
                  "type": "uint256"
                }
              ],
              "internalType": "struct MessagingFee",
              "name": "fee",
              "type": "tuple"
            }
          ],
          "internalType": "struct MessagingReceipt",
          "name": "msgReceipt",
          "type": "tuple"
        },
        {
          "components": [
            {
              "internalType": "uint256",
              "name": "amountSentLD",
              "type": "uint256"
            },
            {
              "internalType": "uint256",
              "name": "amountReceivedLD",
              "type": "uint256"
            }
          ],
          "internalType": "struct OFTReceipt",
          "name": "oftReceipt",
          "type": "tuple"
        }
      ],
      "stateMutability": "payable",
      "type": "function"
    }
  ],
  "transactionHash": "0xe15279195a8724e728cfc5b23b8ccd82b1a1b0966e72b376f6a0558d8e704d97",
  "args": [
    "0xb0a4Bb265cc581be7F5b9Eec425762F8c9373F5D",
    "0x9bFa2DD1fEb1248B8b76c2B9fb249c7eceF326aB"
  ],
  "numDeployments": 1,
  "solcInputHash": "78837febbf0d361efdaee0f1e6a34047",
  "bytecode": "0x608060405234801561001057600080fd5b5060405161066838038061066883398101604081905261002f91610078565b600080546001600160a01b039384166001600160a01b031991821617909155600180549290931691161790556100b2565b6001600160a01b038116811461007557600080fd5b50565b6000806040838503121561008b57600080fd5b825161009681610060565b60208401519092506100a781610060565b809150509250929050565b6105a7806100c16000396000f3fe60806040526004361061001e5760003560e01c8063c7c7f5b314610023575b600080fd5b610036610031366004610216565b61004d565b604051610044929190610295565b60405180910390f35b6100556101ce565b60408051808201909152600080825260208201526000805460408051630d0e30db60e41b8152815191890135936001600160a01b039093169263d0e30db0928592600480820193929182900301818588803b1580156100b357600080fd5b505af11580156100c7573d6000803e3d6000fd5b505060005460015460405163095ea7b360e01b81526001600160a01b039182166004820152602481018790529116935063095ea7b3925060440190506020604051808303816000875af1158015610122573d6000803e3d6000fd5b505050506040513d601f19601f8201168201806040525081019061014691906102eb565b5060015460405163c7c7f5b360e01b81526001600160a01b039091169063c7c7f5b39087359061017e908a908a908a90600401610383565b60c06040518083038185885af115801561019c573d6000803e3d6000fd5b50505050506040513d601f19601f820116820180604052508101906101c191906104cf565b9250925050935093915050565b604051806060016040528060008019168152602001600067ffffffffffffffff168152602001610211604051806040016040528060008152602001600081525090565b905290565b6000806000838503608081121561022c57600080fd5b843567ffffffffffffffff81111561024357600080fd5b850160e0818803121561025557600080fd5b93506040601f198201121561026957600080fd5b5060208401915060608401356001600160a01b038116811461028a57600080fd5b809150509250925092565b600060c0820190508351825267ffffffffffffffff602085015116602083015260408401516102d1604084018280518252602090810151910152565b5082516080830152602083015160a08301525b9392505050565b6000602082840312156102fd57600080fd5b815180151581146102e457600080fd5b6000808335601e1984360301811261032457600080fd5b830160208101925035905067ffffffffffffffff81111561034457600080fd5b80360382131561035357600080fd5b9250929050565b81835281816020850137506000828201602090810191909152601f909101601f19169091010190565b608081526000843563ffffffff8116811461039d57600080fd5b63ffffffff8116608084015250602085013560a0830152604085013560c0830152606085013560e08301526103d5608086018661030d565b60e06101008501526103ec6101608501828461035a565b9150506103fc60a087018761030d565b607f19808685030161012087015261041584838561035a565b935061042460c08a018a61030d565b9350915080868503016101408701525061043f83838361035a565b935050505061045b602083018580358252602090810135910152565b6001600160a01b0383166060830152949350505050565b60006040828403121561048457600080fd5b6040516040810181811067ffffffffffffffff821117156104b557634e487b7160e01b600052604160045260246000fd5b604052825181526020928301519281019290925250919050565b60008082840360c08112156104e357600080fd5b60808112156104f157600080fd5b506040516060810167ffffffffffffffff828210818311171561052457634e487b7160e01b600052604160045260246000fd5b816040528551835260208601519150808216821461054157600080fd5b5060208201526105548560408601610472565b604082015291506105688460808501610472565b9050925092905056fea2646970667358221220fb95ff5e688c7db82adcdf62962d7f14d401dc02fce0c1cba0403fd29ae46d8664736f6c63430008160033",
  "devdoc": {
    "kind": "dev",
    "methods": {
      "send((uint32,bytes32,uint256,uint256,bytes,bytes,bytes),(uint256,uint256),address)": {
        "details": "Executes the send operation.MessagingReceipt: LayerZero msg receipt  - guid: The unique identifier for the sent message.  - nonce: The nonce of the sent message.  - fee: The LayerZero fee incurred for the message.",
        "params": {
          "_fee": "The calculated fee for the send() operation.      - nativeFee: The native fee.      - lzTokenFee: The lzToken fee.",
          "_refundAddress": "The address to receive any excess funds.",
          "_sendParam": "The parameters for the send operation."
        },
        "returns": {
          "msgReceipt": "The receipt for the send operation.",
          "oftReceipt": "The OFT receipt information."
        }
      }
    },
    "version": 1
  },
  "userdoc": {
    "kind": "user",
    "methods": {},
    "version": 1
  },
  "storageLayout": {
    "storage": [
      {
        "astId": 5422,
        "contract": "contracts/CampBridge.sol:CampBridge",
        "label": "weth",
        "offset": 0,
        "slot": "0",
        "type": "t_contract(WETH9)5862"
      },
      {
        "astId": 5425,
        "contract": "contracts/CampBridge.sol:CampBridge",
        "label": "oftAdapter",
        "offset": 0,
        "slot": "1",
        "type": "t_contract(CampOFTAdapter)5613"
      }
    ],
    "types": {
      "t_contract(CampOFTAdapter)5613": {
        "encoding": "inplace",
        "label": "contract CampOFTAdapter",
        "numberOfBytes": "20"
      },
      "t_contract(WETH9)5862": {
        "encoding": "inplace",
        "label": "contract WETH9",
        "numberOfBytes": "20"
      }
    }
  }
}