{
  "address": "0x61114b4596f59dE5bB60cE5418cd57C21dDb2Cf3",
  "abi": [
    {
      "inputs": [
        {
          "internalType": "address",
          "name": "_lzEndpoint",
          "type": "address"
        },
        {
          "internalType": "address",
          "name": "_delegate",
          "type": "address"
        }
      ],
      "stateMutability": "nonpayable",
      "type": "constructor"
    },
    {
      "inputs": [
        {
          "internalType": "address",
          "name": "to",
          "type": "address"
        },
        {
          "internalType": "uint256",
          "name": "amountLD",
          "type": "uint256"
        },
        {
          "internalType": "bytes",
          "name": "revertData",
          "type": "bytes"
        }
      ],
      "name": "CreditFailed",
      "type": "error"
    },
    {
      "inputs": [
        {
          "internalType": "uint256",
          "name": "provided",
          "type": "uint256"
        },
        {
          "internalType": "uint256",
          "name": "required",
          "type": "uint256"
        }
      ],
      "name": "IncorrectMessageValue",
      "type": "error"
    },
    {
      "inputs": [],
      "name": "InvalidDelegate",
      "type": "error"
    },
    {
      "inputs": [],
      "name": "InvalidEndpointCall",
      "type": "error"
    },
    {
      "inputs": [],
      "name": "InvalidLocalDecimals",
      "type": "error"
    },
    {
      "inputs": [
        {
          "internalType": "bytes",
          "name": "options",
          "type": "bytes"
        }
      ],
      "name": "InvalidOptions",
      "type": "error"
    },
    {
      "inputs": [],
      "name": "LzTokenUnavailable",
      "type": "error"
    },
    {
      "inputs": [
        {
          "internalType": "uint32",
          "name": "eid",
          "type": "uint32"
        }
      ],
      "name": "NoPeer",
      "type": "error"
    },
    {
      "inputs": [
        {
          "internalType": "uint256",
          "name": "msgValue",
          "type": "uint256"
        }
      ],
      "name": "NotEnoughNative",
      "type": "error"
    },
    {
      "inputs": [
        {
          "internalType": "address",
          "name": "addr",
          "type": "address"
        }
      ],
      "name": "OnlyEndpoint",
      "type": "error"
    },
    {
      "inputs": [
        {
          "internalType": "uint32",
          "name": "eid",
          "type": "uint32"
        },
        {
          "internalType": "bytes32",
          "name": "sender",
          "type": "bytes32"
        }
      ],
      "name": "OnlyPeer",
      "type": "error"
    },
    {
      "inputs": [],
      "name": "OnlySelf",
      "type": "error"
    },
    {
      "inputs": [
        {
          "internalType": "address",
          "name": "owner",
          "type": "address"
        }
      ],
      "name": "OwnableInvalidOwner",
      "type": "error"
    },
    {
      "inputs": [
        {
          "internalType": "address",
          "name": "account",
          "type": "address"
        }
      ],
      "name": "OwnableUnauthorizedAccount",
      "type": "error"
    },
    {
      "inputs": [
        {
          "internalType": "address",
          "name": "token",
          "type": "address"
        }
      ],
      "name": "SafeERC20FailedOperation",
      "type": "error"
    },
    {
      "inputs": [
        {
          "internalType": "bytes",
          "name": "result",
          "type": "bytes"
        }
      ],
      "name": "SimulationResult",
      "type": "error"
    },
    {
      "inputs": [
        {
          "internalType": "uint256",
          "name": "amountLD",
          "type": "uint256"
        },
        {
          "internalType": "uint256",
          "name": "minAmountLD",
          "type": "uint256"
        }
      ],
      "name": "SlippageExceeded",
      "type": "error"
    },
    {
      "anonymous": false,
      "inputs": [
        {
          "components": [
            {
              "internalType": "uint32",
              "name": "eid",
              "type": "uint32"
            },
            {
              "internalType": "uint16",
              "name": "msgType",
              "type": "uint16"
            },
            {
              "internalType": "bytes",
              "name": "options",
              "type": "bytes"
            }
          ],
          "indexed": false,
          "internalType": "struct EnforcedOptionParam[]",
          "name": "_enforcedOptions",
          "type": "tuple[]"
        }
      ],
      "name": "EnforcedOptionSet",
      "type": "event"
    },
    {
      "anonymous": false,
      "inputs": [
        {
          "indexed": false,
          "internalType": "address",
          "name": "inspector",
          "type": "address"
        }
      ],
      "name": "MsgInspectorSet",
      "type": "event"
    },
    {
      "anonymous": false,
      "inputs": [
        {
          "indexed": true,
          "internalType": "bytes32",
          "name": "guid",
          "type": "bytes32"
        },
        {
          "indexed": false,
          "internalType": "uint32",
          "name": "srcEid",
          "type": "uint32"
        },
        {
          "indexed": true,
          "internalType": "address",
          "name": "toAddress",
          "type": "address"
        },
        {
          "indexed": false,
          "internalType": "uint256",
          "name": "amountReceivedLD",
          "type": "uint256"
        }
      ],
      "name": "OFTReceived",
      "type": "event"
    },
    {
      "anonymous": false,
      "inputs": [
        {
          "indexed": true,
          "internalType": "bytes32",
          "name": "guid",
          "type": "bytes32"
        },
        {
          "indexed": false,
          "internalType": "uint32",
          "name": "dstEid",
          "type": "uint32"
        },
        {
          "indexed": true,
          "internalType": "address",
          "name": "fromAddress",
          "type": "address"
        },
        {
          "indexed": false,
          "internalType": "uint256",
          "name": "amountSentLD",
          "type": "uint256"
        },
        {
          "indexed": false,
          "internalType": "uint256",
          "name": "amountReceivedLD",
          "type": "uint256"
        }
      ],
      "name": "OFTSent",
      "type": "event"
    },
    {
      "anonymous": false,
      "inputs": [
        {
          "indexed": true,
          "internalType": "address",
          "name": "previousOwner",
          "type": "address"
        },
        {
          "indexed": true,
          "internalType": "address",
          "name": "newOwner",
          "type": "address"
        }
      ],
      "name": "OwnershipTransferred",
      "type": "event"
    },
    {
      "anonymous": false,
      "inputs": [
        {
          "indexed": false,
          "internalType": "uint32",
          "name": "eid",
          "type": "uint32"
        },
        {
          "indexed": false,
          "internalType": "bytes32",
          "name": "peer",
          "type": "bytes32"
        }
      ],
      "name": "PeerSet",
      "type": "event"
    },
    {
      "anonymous": false,
      "inputs": [
        {
          "indexed": false,
          "internalType": "address",
          "name": "preCrimeAddress",
          "type": "address"
        }
      ],
      "name": "PreCrimeSet",
      "type": "event"
    },
    {
      "inputs": [],
      "name": "SEND",
      "outputs": [
        {
          "internalType": "uint16",
          "name": "",
          "type": "uint16"
        }
      ],
      "stateMutability": "view",
      "type": "function"
    },
    {
      "inputs": [],
      "name": "SEND_AND_CALL",
      "outputs": [
        {
          "internalType": "uint16",
          "name": "",
          "type": "uint16"
        }
      ],
      "stateMutability": "view",
      "type": "function"
    },
    {
      "inputs": [
        {
          "components": [
            {
              "internalType": "uint32",
              "name": "srcEid",
              "type": "uint32"
            },
            {
              "internalType": "bytes32",
              "name": "sender",
              "type": "bytes32"
            },
            {
              "internalType": "uint64",
              "name": "nonce",
              "type": "uint64"
            }
          ],
          "internalType": "struct Origin",
          "name": "origin",
          "type": "tuple"
        }
      ],
      "name": "allowInitializePath",
      "outputs": [
        {
          "internalType": "bool",
          "name": "",
          "type": "bool"
        }
      ],
      "stateMutability": "view",
      "type": "function"
    },
    {
      "inputs": [],
      "name": "approvalRequired",
      "outputs": [
        {
          "internalType": "bool",
          "name": "",
          "type": "bool"
        }
      ],
      "stateMutability": "pure",
      "type": "function"
    },
    {
      "inputs": [
        {
          "internalType": "uint32",
          "name": "_eid",
          "type": "uint32"
        },
        {
          "internalType": "uint16",
          "name": "_msgType",
          "type": "uint16"
        },
        {
          "internalType": "bytes",
          "name": "_extraOptions",
          "type": "bytes"
        }
      ],
      "name": "combineOptions",
      "outputs": [
        {
          "internalType": "bytes",
          "name": "",
          "type": "bytes"
        }
      ],
      "stateMutability": "view",
      "type": "function"
    },
    {
      "inputs": [],
      "name": "decimalConversionRate",
      "outputs": [
        {
          "internalType": "uint256",
          "name": "",
          "type": "uint256"
        }
      ],
      "stateMutability": "view",
      "type": "function"
    },
    {
      "inputs": [],
      "name": "endpoint",
      "outputs": [
        {
          "internalType": "contract ILayerZeroEndpointV2",
          "name": "",
          "type": "address"
        }
      ],
      "stateMutability": "view",
      "type": "function"
    },
    {
      "inputs": [
        {
          "internalType": "uint32",
          "name": "eid",
          "type": "uint32"
        },
        {
          "internalType": "uint16",
          "name": "msgType",
          "type": "uint16"
        }
      ],
      "name": "enforcedOptions",
      "outputs": [
        {
          "internalType": "bytes",
          "name": "enforcedOption",
          "type": "bytes"
        }
      ],
      "stateMutability": "view",
      "type": "function"
    },
    {
      "inputs": [
        {
          "components": [
            {
              "internalType": "uint32",
              "name": "srcEid",
              "type": "uint32"
            },
            {
              "internalType": "bytes32",
              "name": "sender",
              "type": "bytes32"
            },
            {
              "internalType": "uint64",
              "name": "nonce",
              "type": "uint64"
            }
          ],
          "internalType": "struct Origin",
          "name": "",
          "type": "tuple"
        },
        {
          "internalType": "bytes",
          "name": "",
          "type": "bytes"
        },
        {
          "internalType": "address",
          "name": "_sender",
          "type": "address"
        }
      ],
      "name": "isComposeMsgSender",
      "outputs": [
        {
          "internalType": "bool",
          "name": "",
          "type": "bool"
        }
      ],
      "stateMutability": "view",
      "type": "function"
    },
    {
      "inputs": [
        {
          "internalType": "uint32",
          "name": "_eid",
          "type": "uint32"
        },
        {
          "internalType": "bytes32",
          "name": "_peer",
          "type": "bytes32"
        }
      ],
      "name": "isPeer",
      "outputs": [
        {
          "internalType": "bool",
          "name": "",
          "type": "bool"
        }
      ],
      "stateMutability": "view",
      "type": "function"
    },
    {
      "inputs": [
        {
          "components": [
            {
              "internalType": "uint32",
              "name": "srcEid",
              "type": "uint32"
            },
            {
              "internalType": "bytes32",
              "name": "sender",
              "type": "bytes32"
            },
            {
              "internalType": "uint64",
              "name": "nonce",
              "type": "uint64"
            }
          ],
          "internalType": "struct Origin",
          "name": "_origin",
          "type": "tuple"
        },
        {
          "internalType": "bytes32",
          "name": "_guid",
          "type": "bytes32"
        },
        {
          "internalType": "bytes",
          "name": "_message",
          "type": "bytes"
        },
        {
          "internalType": "address",
          "name": "_executor",
          "type": "address"
        },
        {
          "internalType": "bytes",
          "name": "_extraData",
          "type": "bytes"
        }
      ],
      "name": "lzReceive",
      "outputs": [],
      "stateMutability": "payable",
      "type": "function"
    },
    {
      "inputs": [
        {
          "components": [
            {
              "components": [
                {
                  "internalType": "uint32",
                  "name": "srcEid",
                  "type": "uint32"
                },
                {
                  "internalType": "bytes32",
                  "name": "sender",
                  "type": "bytes32"
                },
                {
                  "internalType": "uint64",
                  "name": "nonce",
                  "type": "uint64"
                }
              ],
              "internalType": "struct Origin",
              "name": "origin",
              "type": "tuple"
            },
            {
              "internalType": "uint32",
              "name": "dstEid",
              "type": "uint32"
            },
            {
              "internalType": "address",
              "name": "receiver",
              "type": "address"
            },
            {
              "internalType": "bytes32",
              "name": "guid",
              "type": "bytes32"
            },
            {
              "internalType": "uint256",
              "name": "value",
              "type": "uint256"
            },
            {
              "internalType": "address",
              "name": "executor",
              "type": "address"
            },
            {
              "internalType": "bytes",
              "name": "message",
              "type": "bytes"
            },
            {
              "internalType": "bytes",
              "name": "extraData",
              "type": "bytes"
            }
          ],
          "internalType": "struct InboundPacket[]",
          "name": "_packets",
          "type": "tuple[]"
        }
      ],
      "name": "lzReceiveAndRevert",
      "outputs": [],
      "stateMutability": "payable",
      "type": "function"
    },
    {
      "inputs": [
        {
          "components": [
            {
              "internalType": "uint32",
              "name": "srcEid",
              "type": "uint32"
            },
            {
              "internalType": "bytes32",
              "name": "sender",
              "type": "bytes32"
            },
            {
              "internalType": "uint64",
              "name": "nonce",
              "type": "uint64"
            }
          ],
          "internalType": "struct Origin",
          "name": "_origin",
          "type": "tuple"
        },
        {
          "internalType": "bytes32",
          "name": "_guid",
          "type": "bytes32"
        },
        {
          "internalType": "bytes",
          "name": "_message",
          "type": "bytes"
        },
        {
          "internalType": "address",
          "name": "_executor",
          "type": "address"
        },
        {
          "internalType": "bytes",
          "name": "_extraData",
          "type": "bytes"
        }
      ],
      "name": "lzReceiveSimulate",
      "outputs": [],
      "stateMutability": "payable",
      "type": "function"
    },
    {
      "inputs": [],
      "name": "msgInspector",
      "outputs": [
        {
          "internalType": "address",
          "name": "",
          "type": "address"
        }
      ],
      "stateMutability": "view",
      "type": "function"
    },
    {
      "inputs": [
        {
          "internalType": "uint32",
          "name": "",
          "type": "uint32"
        },
        {
          "internalType": "bytes32",
          "name": "",
          "type": "bytes32"
        }
      ],
      "name": "nextNonce",
      "outputs": [
        {
          "internalType": "uint64",
          "name": "nonce",
          "type": "uint64"
        }
      ],
      "stateMutability": "view",
      "type": "function"
    },
    {
      "inputs": [],
      "name": "oApp",
      "outputs": [
        {
          "internalType": "address",
          "name": "",
          "type": "address"
        }
      ],
      "stateMutability": "view",
      "type": "function"
    },
    {
      "inputs": [],
      "name": "oAppVersion",
      "outputs": [
        {
          "internalType": "uint64",
          "name": "senderVersion",
          "type": "uint64"
        },
        {
          "internalType": "uint64",
          "name": "receiverVersion",
          "type": "uint64"
        }
      ],
      "stateMutability": "pure",
      "type": "function"
    },
    {
      "inputs": [],
      "name": "oftVersion",
      "outputs": [
        {
          "internalType": "bytes4",
          "name": "interfaceId",
          "type": "bytes4"
        },
        {
          "internalType": "uint64",
          "name": "version",
          "type": "uint64"
        }
      ],
      "stateMutability": "pure",
      "type": "function"
    },
    {
      "inputs": [],
      "name": "owner",
      "outputs": [
        {
          "internalType": "address",
          "name": "",
          "type": "address"
        }
      ],
      "stateMutability": "view",
      "type": "function"
    },
    {
      "inputs": [
        {
          "internalType": "uint32",
          "name": "eid",
          "type": "uint32"
        }
      ],
      "name": "peers",
      "outputs": [
        {
          "internalType": "bytes32",
          "name": "peer",
          "type": "bytes32"
        }
      ],
      "stateMutability": "view",
      "type": "function"
    },
    {
      "inputs": [],
      "name": "preCrime",
      "outputs": [
        {
          "internalType": "address",
          "name": "",
          "type": "address"
        }
      ],
      "stateMutability": "view",
      "type": "function"
    },
    {
      "inputs": [
        {
          "components": [
            {
              "internalType": "uint32",
              "name": "dstEid",
              "type": "uint32"
            },
            {
              "internalType": "bytes32",
              "name": "to",
              "type": "bytes32"
            },
            {
              "internalType": "uint256",
              "name": "amountLD",
              "type": "uint256"
            },
            {
              "internalType": "uint256",
              "name": "minAmountLD",
              "type": "uint256"
            },
            {
              "internalType": "bytes",
              "name": "extraOptions",
              "type": "bytes"
            },
            {
              "internalType": "bytes",
              "name": "composeMsg",
              "type": "bytes"
            },
            {
              "internalType": "bytes",
              "name": "oftCmd",
              "type": "bytes"
            }
          ],
          "internalType": "struct SendParam",
          "name": "_sendParam",
          "type": "tuple"
        }
      ],
      "name": "quoteOFT",
      "outputs": [
        {
          "components": [
            {
              "internalType": "uint256",
              "name": "minAmountLD",
              "type": "uint256"
            },
            {
              "internalType": "uint256",
              "name": "maxAmountLD",
              "type": "uint256"
            }
          ],
          "internalType": "struct OFTLimit",
          "name": "oftLimit",
          "type": "tuple"
        },
        {
          "components": [
            {
              "internalType": "int256",
              "name": "feeAmountLD",
              "type": "int256"
            },
            {
              "internalType": "string",
              "name": "description",
              "type": "string"
            }
          ],
          "internalType": "struct OFTFeeDetail[]",
          "name": "oftFeeDetails",
          "type": "tuple[]"
        },
        {
          "components": [
            {
              "internalType": "uint256",
              "name": "amountSentLD",
              "type": "uint256"
            },
            {
              "internalType": "uint256",
              "name": "amountReceivedLD",
              "type": "uint256"
            }
          ],
          "internalType": "struct OFTReceipt",
          "name": "oftReceipt",
          "type": "tuple"
        }
      ],
      "stateMutability": "view",
      "type": "function"
    },
    {
      "inputs": [
        {
          "components": [
            {
              "internalType": "uint32",
              "name": "dstEid",
              "type": "uint32"
            },
            {
              "internalType": "bytes32",
              "name": "to",
              "type": "bytes32"
            },
            {
              "internalType": "uint256",
              "name": "amountLD",
              "type": "uint256"
            },
            {
              "internalType": "uint256",
              "name": "minAmountLD",
              "type": "uint256"
            },
            {
              "internalType": "bytes",
              "name": "extraOptions",
              "type": "bytes"
            },
            {
              "internalType": "bytes",
              "name": "composeMsg",
              "type": "bytes"
            },
            {
              "internalType": "bytes",
              "name": "oftCmd",
              "type": "bytes"
            }
          ],
          "internalType": "struct SendParam",
          "name": "_sendParam",
          "type": "tuple"
        },
        {
          "internalType": "bool",
          "name": "_payInLzToken",
          "type": "bool"
        }
      ],
      "name": "quoteSend",
      "outputs": [
        {
          "components": [
            {
              "internalType": "uint256",
              "name": "nativeFee",
              "type": "uint256"
            },
            {
              "internalType": "uint256",
              "name": "lzTokenFee",
              "type": "uint256"
            }
          ],
          "internalType": "struct MessagingFee",
          "name": "msgFee",
          "type": "tuple"
        }
      ],
      "stateMutability": "view",
      "type": "function"
    },
    {
      "inputs": [],
      "name": "renounceOwnership",
      "outputs": [],
      "stateMutability": "nonpayable",
      "type": "function"
    },
    {
      "inputs": [
        {
          "components": [
            {
              "internalType": "uint32",
              "name": "dstEid",
              "type": "uint32"
            },
            {
              "internalType": "bytes32",
              "name": "to",
              "type": "bytes32"
            },
            {
              "internalType": "uint256",
              "name": "amountLD",
              "type": "uint256"
            },
            {
              "internalType": "uint256",
              "name": "minAmountLD",
              "type": "uint256"
            },
            {
              "internalType": "bytes",
              "name": "extraOptions",
              "type": "bytes"
            },
            {
              "internalType": "bytes",
              "name": "composeMsg",
              "type": "bytes"
            },
            {
              "internalType": "bytes",
              "name": "oftCmd",
              "type": "bytes"
            }
          ],
          "internalType": "struct SendParam",
          "name": "_sendParam",
          "type": "tuple"
        },
        {
          "components": [
            {
              "internalType": "uint256",
              "name": "nativeFee",
              "type": "uint256"
            },
            {
              "internalType": "uint256",
              "name": "lzTokenFee",
              "type": "uint256"
            }
          ],
          "internalType": "struct MessagingFee",
          "name": "_fee",
          "type": "tuple"
        },
        {
          "internalType": "address",
          "name": "_refundAddress",
          "type": "address"
        }
      ],
      "name": "send",
      "outputs": [
        {
          "components": [
            {
              "internalType": "bytes32",
              "name": "guid",
              "type": "bytes32"
            },
            {
              "internalType": "uint64",
              "name": "nonce",
              "type": "uint64"
            },
            {
              "components": [
                {
                  "internalType": "uint256",
                  "name": "nativeFee",
                  "type": "uint256"
                },
                {
                  "internalType": "uint256",
                  "name": "lzTokenFee",
                  "type": "uint256"
                }
              ],
              "internalType": "struct MessagingFee",
              "name": "fee",
              "type": "tuple"
            }
          ],
          "internalType": "struct MessagingReceipt",
          "name": "msgReceipt",
          "type": "tuple"
        },
        {
          "components": [
            {
              "internalType": "uint256",
              "name": "amountSentLD",
              "type": "uint256"
            },
            {
              "internalType": "uint256",
              "name": "amountReceivedLD",
              "type": "uint256"
            }
          ],
          "internalType": "struct OFTReceipt",
          "name": "oftReceipt",
          "type": "tuple"
        }
      ],
      "stateMutability": "payable",
      "type": "function"
    },
    {
      "inputs": [
        {
          "internalType": "address",
          "name": "_delegate",
          "type": "address"
        }
      ],
      "name": "setDelegate",
      "outputs": [],
      "stateMutability": "nonpayable",
      "type": "function"
    },
    {
      "inputs": [
        {
          "components": [
            {
              "internalType": "uint32",
              "name": "eid",
              "type": "uint32"
            },
            {
              "internalType": "uint16",
              "name": "msgType",
              "type": "uint16"
            },
            {
              "internalType": "bytes",
              "name": "options",
              "type": "bytes"
            }
          ],
          "internalType": "struct EnforcedOptionParam[]",
          "name": "_enforcedOptions",
          "type": "tuple[]"
        }
      ],
      "name": "setEnforcedOptions",
      "outputs": [],
      "stateMutability": "nonpayable",
      "type": "function"
    },
    {
      "inputs": [
        {
          "internalType": "address",
          "name": "_msgInspector",
          "type": "address"
        }
      ],
      "name": "setMsgInspector",
      "outputs": [],
      "stateMutability": "nonpayable",
      "type": "function"
    },
    {
      "inputs": [
        {
          "internalType": "uint32",
          "name": "_eid",
          "type": "uint32"
        },
        {
          "internalType": "bytes32",
          "name": "_peer",
          "type": "bytes32"
        }
      ],
      "name": "setPeer",
      "outputs": [],
      "stateMutability": "nonpayable",
      "type": "function"
    },
    {
      "inputs": [
        {
          "internalType": "address",
          "name": "_preCrime",
          "type": "address"
        }
      ],
      "name": "setPreCrime",
      "outputs": [],
      "stateMutability": "nonpayable",
      "type": "function"
    },
    {
      "inputs": [],
      "name": "sharedDecimals",
      "outputs": [
        {
          "internalType": "uint8",
          "name": "",
          "type": "uint8"
        }
      ],
      "stateMutability": "view",
      "type": "function"
    },
    {
      "inputs": [],
      "name": "token",
      "outputs": [
        {
          "internalType": "address",
          "name": "",
          "type": "address"
        }
      ],
      "stateMutability": "pure",
      "type": "function"
    },
    {
      "inputs": [
        {
          "internalType": "address",
          "name": "newOwner",
          "type": "address"
        }
      ],
      "name": "transferOwnership",
      "outputs": [],
      "stateMutability": "nonpayable",
      "type": "function"
    }
  ],
  "transactionHash": "0x5d9d38cb3c980ee0d8b2d6774a8d58cb97f9281c3e5286579fdd16915132c37d",
  "args": [
    "0x6EDCE65403992e310A62460808c4b910D972f10f",
    "0x10e11A95D03585737B3e62b82F495b819fFf0D1B"
  ],
  "numDeployments": 1,
  "solcInputHash": "002fc8be6a61f7c82aba1e7343eafd88",
  "bytecode": "0x60c060405234801562000010575f80fd5b5060405162002ce538038062002ce58339810160408190526200003391620001da565b6012828282828281818181806001600160a01b0381166200006d57604051631e4fbdf760e01b81525f600482015260240160405180910390fd5b62000078816200016a565b506001600160a01b038083166080528116620000a757604051632d618d8160e21b815260040160405180910390fd5b60805160405163ca5eb5e160e01b81526001600160a01b0383811660048301529091169063ca5eb5e1906024015f604051808303815f87803b158015620000ec575f80fd5b505af1158015620000ff573d5f803e3d5ffd5b505050505050505062000117620001b960201b60201c565b60ff168360ff1610156200013e576040516301e9714b60e41b815260040160405180910390fd5b6200014b60128462000224565b6200015890600a6200033f565b60a05250620003569650505050505050565b5f80546001600160a01b038381166001600160a01b0319831681178455604051919092169283917f8be0079c531659141344cd1fd0a4f28419497f9722a3daafe3b4186f6b6457e09190a35050565b601290565b80516001600160a01b0381168114620001d5575f80fd5b919050565b5f8060408385031215620001ec575f80fd5b620001f783620001be565b91506200020760208401620001be565b90509250929050565b634e487b7160e01b5f52601160045260245ffd5b60ff828116828216039081111562000240576200024062000210565b92915050565b600181815b808511156200028657815f19048211156200026a576200026a62000210565b808516156200027857918102915b93841c93908002906200024b565b509250929050565b5f826200029e5750600162000240565b81620002ac57505f62000240565b8160018114620002c55760028114620002d057620002f0565b600191505062000240565b60ff841115620002e457620002e462000210565b50506001821b62000240565b5060208310610133831016604e8410600b841016171562000315575081810a62000240565b62000321838362000246565b805f190482111562000337576200033762000210565b029392505050565b5f6200034f60ff8416836200028e565b9392505050565b60805160a051612927620003be5f395f81816104c301528181611480015281816115f1015261172401525f81816103ce0152818161072601528181610d6101528181610fb90152818161123801528181611800015281816118d8015261198d01526129275ff3fe6080604052600436106101e6575f3560e01c806382413eac11610108578063bc70b3541161009d578063d045a0dc1161006d578063d045a0dc146105e0578063d4243885146105f3578063f2fde38b14610612578063fc0c546a14610631578063ff7bd03d14610643575f80fd5b8063bc70b3541461056e578063bd815db01461058d578063c7c7f5b3146105a0578063ca5eb5e1146105c1575f80fd5b80639f68b964116100d85780639f68b964146104f3578063b731ea0a14610505578063b98bd07014610524578063bb0b6a5314610543575f80fd5b806382413eac1461045c578063857749b01461047b5780638da5cb5b14610496578063963efcaa146104b2575f80fd5b80633b6f743b1161017e5780635e280f111161014e5780635e280f11146103bd5780636fc1b31e146103f0578063715018a61461040f5780637d25a05e14610423575f80fd5b80633b6f743b1461030e57806352ae28791461033a5780635535d4611461034c5780635a0dfe4d14610378575f80fd5b8063156a0d0f116101b9578063156a0d0f1461029457806317442b70146102ba5780631f5e1334146102db5780633400288b146102ef575f80fd5b80630d35b415146101ea578063111ecdad1461022157806313137d6514610258578063134d4f251461026d575b5f80fd5b3480156101f5575f80fd5b50610209610204366004611acf565b610662565b60405161021893929190611b4d565b60405180910390f35b34801561022c575f80fd5b50600454610240906001600160a01b031681565b6040516001600160a01b039091168152602001610218565b61026b610266366004611c4c565b610724565b005b348015610278575f80fd5b50610281600281565b60405161ffff9091168152602001610218565b34801561029f575f80fd5b506040805162b9270b60e21b81526001602082015201610218565b3480156102c5575f80fd5b5060408051600181526002602082015201610218565b3480156102e6575f80fd5b50610281600181565b3480156102fa575f80fd5b5061026b610309366004611cfc565b6107e4565b348015610319575f80fd5b5061032d610328366004611d31565b6107fa565b6040516102189190611d7f565b348015610345575f80fd5b5030610240565b348015610357575f80fd5b5061036b610366366004611da7565b610860565b6040516102189190611dd8565b348015610383575f80fd5b506103ad610392366004611cfc565b63ffffffff919091165f908152600160205260409020541490565b6040519015158152602001610218565b3480156103c8575f80fd5b506102407f000000000000000000000000000000000000000000000000000000000000000081565b3480156103fb575f80fd5b5061026b61040a366004611dea565b610902565b34801561041a575f80fd5b5061026b61095f565b34801561042e575f80fd5b5061044461043d366004611cfc565b5f92915050565b6040516001600160401b039091168152602001610218565b348015610467575f80fd5b506103ad610476366004611e05565b610972565b348015610486575f80fd5b5060405160128152602001610218565b3480156104a1575f80fd5b505f546001600160a01b0316610240565b3480156104bd575f80fd5b506104e57f000000000000000000000000000000000000000000000000000000000000000081565b604051908152602001610218565b3480156104fe575f80fd5b505f6103ad565b348015610510575f80fd5b50600254610240906001600160a01b031681565b34801561052f575f80fd5b5061026b61053e366004611ea7565b610987565b34801561054e575f80fd5b506104e561055d366004611ee5565b60016020525f908152604090205481565b348015610579575f80fd5b5061036b610588366004611efe565b6109a1565b61026b61059b366004611ea7565b610b42565b6105b36105ae366004611f5a565b610cc2565b604051610218929190611fc2565b3480156105cc575f80fd5b5061026b6105db366004611dea565b610d3a565b61026b6105ee366004611c4c565b610dbb565b3480156105fe575f80fd5b5061026b61060d366004611dea565b610dea565b34801561061d575f80fd5b5061026b61062c366004611dea565b610e40565b34801561063c575f80fd5b505f610240565b34801561064e575f80fd5b506103ad61065d366004612013565b610e7d565b604080518082019091525f8082526020820152606061069260405180604001604052805f81526020015f81525090565b6040805180820182525f8082525f1960208084019190915283518281529081019093529094506106e4565b604080518082019091525f8152606060208201528152602001906001900390816106bd5790505b5091505f806107086040870135606088013561070360208a018a611ee5565b610eb1565b6040805180820190915291825260208201529496939550505050565b7f00000000000000000000000000000000000000000000000000000000000000006001600160a01b03163314610774576040516391ac5e4f60e01b81523360048201526024015b60405180910390fd5b6020870180359061078e90610789908a611ee5565b610eec565b146107cc576107a06020880188611ee5565b60405163309afaf360e21b815263ffffffff90911660048201526020880135602482015260440161076b565b6107db87878787878787610f27565b50505050505050565b6107ec611085565b6107f682826110b1565b5050565b604080518082019091525f80825260208201525f610828604085013560608601356107036020880188611ee5565b9150505f806108378684611105565b909250905061085461084c6020880188611ee5565b838388611223565b93505050505b92915050565b600360209081525f92835260408084209091529082529020805461088390612041565b80601f01602080910402602001604051908101604052809291908181526020018280546108af90612041565b80156108fa5780601f106108d1576101008083540402835291602001916108fa565b820191905f5260205f20905b8154815290600101906020018083116108dd57829003601f168201915b505050505081565b61090a611085565b600480546001600160a01b0319166001600160a01b0383169081179091556040519081527ff0be4f1e87349231d80c36b33f9e8639658eeaf474014dee15a3e6a4d4414197906020015b60405180910390a150565b610967611085565b6109705f611301565b565b6001600160a01b03811630145b949350505050565b61098f611085565b6107f661099c8284612113565b611350565b63ffffffff84165f90815260036020908152604080832061ffff871684529091528120805460609291906109d490612041565b80601f0160208091040260200160405190810160405280929190818152602001828054610a0090612041565b8015610a4b5780601f10610a2257610100808354040283529160200191610a4b565b820191905f5260205f20905b815481529060010190602001808311610a2e57829003601f168201915b5050505050905080515f03610a995783838080601f0160208091040260200160405190810160405280939291908181526020018383808284375f9201919091525092945061097f9350505050565b5f839003610aa857905061097f565b60028310610b2557610aee84848080601f0160208091040260200160405190810160405280939291908181526020018383808284375f9201919091525061145192505050565b80610afc846002818861221b565b604051602001610b0e93929190612242565b60405160208183030381529060405291505061097f565b8383604051639a6d49cd60e01b815260040161076b929190612290565b5f5b81811015610c455736838383818110610b5f57610b5f6122a3565b9050602002810190610b7191906122b7565b9050610ba3610b836020830183611ee5565b602083013563ffffffff919091165f908152600160205260409020541490565b610bad5750610c3d565b3063d045a0dc60c08301358360a0810135610bcc6101008301836122d6565b610bdd610100890160e08a01611dea565b610beb6101208a018a6122d6565b6040518963ffffffff1660e01b8152600401610c0d979695949392919061232c565b5f604051808303818588803b158015610c24575f80fd5b505af1158015610c36573d5f803e3d5ffd5b5050505050505b600101610b44565b50336001600160a01b0316638e9e70996040518163ffffffff1660e01b81526004015f60405180830381865afa158015610c81573d5f803e3d5ffd5b505050506040513d5f823e601f3d908101601f19168201604052610ca891908101906123b1565b604051638351eea760e01b815260040161076b9190611dd8565b610cca611a76565b604080518082019091525f80825260208201525f610ceb866040013561147d565b610cf690863561242d565b9050803414610d2157604051631d35f4cf60e31b81523460048201526024810182905260440161076b565b610d2c8686866114b3565b92509250505b935093915050565b610d42611085565b60405163ca5eb5e160e01b81526001600160a01b0382811660048301527f0000000000000000000000000000000000000000000000000000000000000000169063ca5eb5e1906024015f604051808303815f87803b158015610da2575f80fd5b505af1158015610db4573d5f803e3d5ffd5b5050505050565b333014610ddb5760405163029a949d60e31b815260040160405180910390fd5b6107db878787878787876107cc565b610df2611085565b600280546001600160a01b0319166001600160a01b0383169081179091556040519081527fd48d879cef83a1c0bdda516f27b13ddb1b3f8bbac1c9e1511bb2a659c242776090602001610954565b610e48611085565b6001600160a01b038116610e7157604051631e4fbdf760e01b81525f600482015260240161076b565b610e7a81611301565b50565b5f602082018035906001908390610e949086611ee5565b63ffffffff16815260208101919091526040015f20541492915050565b5f80610ebc8561147d565b915081905083811015610d32576040516371c4efed60e01b8152600481018290526024810185905260440161076b565b63ffffffff81165f908152600160205260408120548061085a5760405163f6ff4fb760e01b815263ffffffff8416600482015260240161076b565b5f610f38610f3587876115ab565b90565b90505f610f6382610f51610f4c8a8a6115c9565b6115eb565b610f5e60208d018d611ee5565b61161f565b90506028861115611023575f610f9f610f8260608c0160408d01612440565b610f8f60208d018d611ee5565b84610f9a8c8c6116a2565b6116ec565b604051633e5ac80960e11b81529091506001600160a01b037f00000000000000000000000000000000000000000000000000000000000000001690637cb5901290610ff49086908d905f90879060040161245b565b5f604051808303815f87803b15801561100b575f80fd5b505af115801561101d573d5f803e3d5ffd5b50505050505b6001600160a01b038216887fefed6d3500546b29533b128a29e3a94d70788727f0507505ac12eaf2e578fd9c61105c60208d018d611ee5565b6040805163ffffffff9092168252602082018690520160405180910390a3505050505050505050565b5f546001600160a01b031633146109705760405163118cdaa760e01b815233600482015260240161076b565b63ffffffff82165f81815260016020908152604091829020849055815192835282018390527f238399d427b947898edb290f5ff0f9109849b1c3ba196a42e35f00c50a54b98b910160405180910390a15050565b6060805f611160856020013561111a8661171e565b61112760a08901896122d6565b8080601f0160208091040260200160405190810160405280939291908181526020018383808284375f9201919091525061174992505050565b90935090505f81611172576001611175565b60025b90506111956111876020880188611ee5565b8261058860808a018a6122d6565b6004549093506001600160a01b031680156112195760405163043a78eb60e01b81526001600160a01b0382169063043a78eb906111d89088908890600401612495565b602060405180830381865afa1580156111f3573d5f803e3d5ffd5b505050506040513d601f19601f8201168201806040525081019061121791906124b9565b505b5050509250929050565b604080518082019091525f80825260208201527f00000000000000000000000000000000000000000000000000000000000000006001600160a01b031663ddc28c586040518060a001604052808863ffffffff16815260200161128589610eec565b8152602001878152602001868152602001851515815250306040518363ffffffff1660e01b81526004016112ba9291906124d4565b6040805180830381865afa1580156112d4573d5f803e3d5ffd5b505050506040513d601f19601f820116820180604052508101906112f8919061257a565b95945050505050565b5f80546001600160a01b038381166001600160a01b0319831681178455604051919092169283917f8be0079c531659141344cd1fd0a4f28419497f9722a3daafe3b4186f6b6457e09190a35050565b5f5b815181101561142157611381828281518110611370576113706122a3565b602002602001015160400151611451565b818181518110611393576113936122a3565b60200260200101516040015160035f8484815181106113b4576113b46122a3565b60200260200101515f015163ffffffff1663ffffffff1681526020019081526020015f205f8484815181106113eb576113eb6122a3565b60200260200101516020015161ffff1661ffff1681526020019081526020015f20908161141891906125dd565b50600101611352565b507fbe4864a8e820971c0247f5992e2da559595f7bf076a21cb5928d443d2a13b67481604051610954919061269c565b600281015161ffff81166003146107f65781604051639a6d49cd60e01b815260040161076b9190611dd8565b5f7f00000000000000000000000000000000000000000000000000000000000000006114a98184612725565b61085a9190612744565b6114bb611a76565b604080518082019091525f80825260208201525f806114f033604089013560608a01356114eb60208c018c611ee5565b6117c3565b915091505f806115008984611105565b909250905061152c61151560208b018b611ee5565b8383611526368d90038d018d61275b565b8b6117dd565b60408051808201909152858152602080820186905282519298509096503391907f85496b760a4b7f8d66384b9df21b381f5d1b1e79f229a47aaf4c232edc2fe59a9061157a908d018d611ee5565b6040805163ffffffff909216825260208201899052810187905260600160405180910390a350505050935093915050565b5f6115b9602082848661221b565b6115c29161278b565b9392505050565b5f6115d860286020848661221b565b6115e1916127a8565b60c01c9392505050565b5f61085a7f00000000000000000000000000000000000000000000000000000000000000006001600160401b038416612744565b5f805f856001600160a01b0316856040515f6040518083038185875af1925050503d805f811461166a576040519150601f19603f3d011682016040523d82523d5f602084013e61166f565b606091505b5091509150816116985785858260405163679f6e3d60e01b815260040161076b939291906127d8565b5092949350505050565b60606116b1826028818661221b565b8080601f0160208091040260200160405190810160405280939291908181526020018383808284375f92019190915250929695505050505050565b60608484848460405160200161170594939291906127fe565b6040516020818303038152906040529050949350505050565b5f61085a7f000000000000000000000000000000000000000000000000000000000000000083612725565b805160609015158061179257848460405160200161177e92919091825260c01b6001600160c01b031916602082015260280190565b6040516020818303038152906040526117b9565b848433856040516020016117a9949392919061284c565b6040516020818303038152906040525b9150935093915050565b5f806117d0858585610eb1565b9097909650945050505050565b6117e5611a76565b82516020840151156117fe576117fe84602001516118d5565b7f00000000000000000000000000000000000000000000000000000000000000006001600160a01b0316632637a450826040518060a001604052808b63ffffffff16815260200161184e8c610eec565b81526020018a81526020018981526020015f8960200151111515815250866040518463ffffffff1660e01b81526004016118899291906124d4565b60806040518083038185885af11580156118a5573d5f803e3d5ffd5b50505050506040513d601f19601f820116820180604052508101906118ca919061288e565b979650505050505050565b5f7f00000000000000000000000000000000000000000000000000000000000000006001600160a01b031663e4fe1d946040518163ffffffff1660e01b8152600401602060405180830381865afa158015611932573d5f803e3d5ffd5b505050506040513d601f19601f8201168201806040525081019061195691906128d6565b90506001600160a01b03811661197f576040516329b99a9560e11b815260040160405180910390fd5b6040805133602482018190527f00000000000000000000000000000000000000000000000000000000000000006001600160a01b03818116604485015260648085018890528551808603909101815260849094019094526020830180516001600160e01b03166323b872dd60e01b1790526107f6938516928690611a04908590611a0a565b50505050565b5f8060205f8451602086015f885af180611a29576040513d5f823e3d81fd5b50505f513d91508115611a40578060011415611a4d565b6001600160a01b0384163b155b15611a0457604051635274afe760e01b81526001600160a01b038516600482015260240161076b565b60405180606001604052805f80191681526020015f6001600160401b03168152602001611ab460405180604001604052805f81526020015f81525090565b905290565b5f60e08284031215611ac9575f80fd5b50919050565b5f60208284031215611adf575f80fd5b81356001600160401b03811115611af4575f80fd5b61097f84828501611ab9565b5f5b83811015611b1a578181015183820152602001611b02565b50505f910152565b5f8151808452611b39816020860160208601611b00565b601f01601f19169290920160200192915050565b83518152602080850151908201525f60a08201604060a0604085015281865180845260c08601915060c08160051b870101935060208089015f5b83811015611bc65788870360bf19018552815180518852830151838801879052611bb387890182611b22565b9750509382019390820190600101611b87565b5050875160608801525050506020850151608085015250905061097f565b5f60608284031215611ac9575f80fd5b5f8083601f840112611c04575f80fd5b5081356001600160401b03811115611c1a575f80fd5b602083019150836020828501011115611c31575f80fd5b9250929050565b6001600160a01b0381168114610e7a575f80fd5b5f805f805f805f60e0888a031215611c62575f80fd5b611c6c8989611be4565b96506060880135955060808801356001600160401b0380821115611c8e575f80fd5b611c9a8b838c01611bf4565b909750955060a08a01359150611caf82611c38565b90935060c08901359080821115611cc4575f80fd5b50611cd18a828b01611bf4565b989b979a50959850939692959293505050565b803563ffffffff81168114611cf7575f80fd5b919050565b5f8060408385031215611d0d575f80fd5b611d1683611ce4565b946020939093013593505050565b8015158114610e7a575f80fd5b5f8060408385031215611d42575f80fd5b82356001600160401b03811115611d57575f80fd5b611d6385828601611ab9565b9250506020830135611d7481611d24565b809150509250929050565b81518152602080830151908201526040810161085a565b803561ffff81168114611cf7575f80fd5b5f8060408385031215611db8575f80fd5b611dc183611ce4565b9150611dcf60208401611d96565b90509250929050565b602081525f6115c26020830184611b22565b5f60208284031215611dfa575f80fd5b81356115c281611c38565b5f805f8060a08587031215611e18575f80fd5b611e228686611be4565b935060608501356001600160401b03811115611e3c575f80fd5b611e4887828801611bf4565b9094509250506080850135611e5c81611c38565b939692955090935050565b5f8083601f840112611e77575f80fd5b5081356001600160401b03811115611e8d575f80fd5b6020830191508360208260051b8501011115611c31575f80fd5b5f8060208385031215611eb8575f80fd5b82356001600160401b03811115611ecd575f80fd5b611ed985828601611e67565b90969095509350505050565b5f60208284031215611ef5575f80fd5b6115c282611ce4565b5f805f8060608587031215611f11575f80fd5b611f1a85611ce4565b9350611f2860208601611d96565b925060408501356001600160401b03811115611f42575f80fd5b611f4e87828801611bf4565b95989497509550505050565b5f805f8385036080811215611f6d575f80fd5b84356001600160401b03811115611f82575f80fd5b611f8e87828801611ab9565b9450506040601f1982011215611fa2575f80fd5b506020840191506060840135611fb781611c38565b809150509250925092565b5f60c082019050835182526001600160401b0360208501511660208301526040840151611ffc604084018280518252602090810151910152565b5082516080830152602083015160a08301526115c2565b5f60608284031215612023575f80fd5b6115c28383611be4565b634e487b7160e01b5f52604160045260245ffd5b600181811c9082168061205557607f821691505b602082108103611ac957634e487b7160e01b5f52602260045260245ffd5b604051606081016001600160401b03811182821017156120955761209561202d565b60405290565b604080519081016001600160401b03811182821017156120955761209561202d565b604051601f8201601f191681016001600160401b03811182821017156120e5576120e561202d565b604052919050565b5f6001600160401b038211156121055761210561202d565b50601f01601f191660200190565b5f6001600160401b038084111561212c5761212c61202d565b8360051b602061213d8183016120bd565b868152918501918181019036841115612154575f80fd5b865b8481101561220f5780358681111561216c575f80fd5b8801606036829003121561217e575f80fd5b612186612073565b61218f82611ce4565b815261219c868301611d96565b86820152604080830135898111156121b2575f80fd5b929092019136601f8401126121c5575f80fd5b82356121d86121d3826120ed565b6120bd565b81815236898387010111156121eb575f80fd5b818986018a8301375f91810189019190915290820152845250918301918301612156565b50979650505050505050565b5f8085851115612229575f80fd5b83861115612235575f80fd5b5050820193919092039150565b5f8451612253818460208901611b00565b8201838582375f930192835250909392505050565b81835281816020850137505f828201602090810191909152601f909101601f19169091010190565b602081525f61097f602083018486612268565b634e487b7160e01b5f52603260045260245ffd5b5f823561013e198336030181126122cc575f80fd5b9190910192915050565b5f808335601e198436030181126122eb575f80fd5b8301803591506001600160401b03821115612304575f80fd5b602001915036819003821315611c31575f80fd5b6001600160401b0381168114610e7a575f80fd5b63ffffffff61233a89611ce4565b168152602088013560208201525f604089013561235681612318565b6001600160401b03811660408401525087606083015260e0608083015261238160e083018789612268565b6001600160a01b03861660a084015282810360c08401526123a3818587612268565b9a9950505050505050505050565b5f602082840312156123c1575f80fd5b81516001600160401b038111156123d6575f80fd5b8201601f810184136123e6575f80fd5b80516123f46121d3826120ed565b818152856020838501011115612408575f80fd5b6112f8826020830160208601611b00565b634e487b7160e01b5f52601160045260245ffd5b8082018082111561085a5761085a612419565b5f60208284031215612450575f80fd5b81356115c281612318565b60018060a01b038516815283602082015261ffff83166040820152608060608201525f61248b6080830184611b22565b9695505050505050565b604081525f6124a76040830185611b22565b82810360208401526112f88185611b22565b5f602082840312156124c9575f80fd5b81516115c281611d24565b6040815263ffffffff8351166040820152602083015160608201525f604084015160a0608084015261250960e0840182611b22565b90506060850151603f198483030160a08501526125268282611b22565b60809690960151151560c08501525050506001600160a01b039190911660209091015290565b5f6040828403121561255c575f80fd5b61256461209b565b9050815181526020820151602082015292915050565b5f6040828403121561258a575f80fd5b6115c2838361254c565b601f8211156125d857805f5260205f20601f840160051c810160208510156125b95750805b601f840160051c820191505b81811015610db4575f81556001016125c5565b505050565b81516001600160401b038111156125f6576125f661202d565b61260a816126048454612041565b84612594565b602080601f83116001811461263d575f84156126265750858301515b5f19600386901b1c1916600185901b178555612694565b5f85815260208120601f198616915b8281101561266b5788860151825594840194600190910190840161264c565b508582101561268857878501515f19600388901b60f8161c191681555b505060018460011b0185555b505050505050565b5f60208083018184528085518083526040925060408601915060408160051b8701018488015f5b8381101561271757888303603f190185528151805163ffffffff1684528781015161ffff1688850152860151606087850181905261270381860183611b22565b9689019694505050908601906001016126c3565b509098975050505050505050565b5f8261273f57634e487b7160e01b5f52601260045260245ffd5b500490565b808202811582820484141761085a5761085a612419565b5f6040828403121561276b575f80fd5b61277361209b565b82358152602083013560208201528091505092915050565b8035602083101561085a575f19602084900360031b1b1692915050565b6001600160c01b031981358181169160088510156127d05780818660080360031b1b83161692505b505092915050565b60018060a01b0384168152826020820152606060408201525f6112f86060830184611b22565b6001600160401b0360c01b8560c01b16815263ffffffff60e01b8460e01b16600882015282600c8201525f825161283c81602c850160208701611b00565b91909101602c0195945050505050565b8481526001600160401b0360c01b8460c01b1660208201528260288201525f825161287e816048850160208701611b00565b9190910160480195945050505050565b5f6080828403121561289e575f80fd5b6128a6612073565b8251815260208301516128b881612318565b60208201526128ca846040850161254c565b60408201529392505050565b5f602082840312156128e6575f80fd5b81516115c281611c3856fea26469706673582212209708f8fc075826b9750bb7f4467b0cc634d3cc0d61576d5434407020bb3f5fbf64736f6c63430008180033",
  "devdoc": {
    "details": "OFTAdapter is a contract that adapts an ERC-20 token to the OFT functionality.For existing ERC20 tokens, this can be used to convert the token to crosschain compatibility.WARNING: ONLY 1 of these should exist for a given global mesh, unless you make a NON-default implementation of OFT and needs to be done very carefully.",
    "errors": {
      "OwnableInvalidOwner(address)": [
        {
          "details": "The owner is not a valid owner account. (eg. `address(0)`)"
        }
      ],
      "OwnableUnauthorizedAccount(address)": [
        {
          "details": "The caller account is not authorized to perform an operation."
        }
      ],
      "SafeERC20FailedOperation(address)": [
        {
          "details": "An operation with an ERC-20 token failed."
        }
      ]
    },
    "events": {
      "PreCrimeSet(address)": {
        "details": "Emitted when the preCrime contract address is set.",
        "params": {
          "preCrimeAddress": "The address of the preCrime contract."
        }
      }
    },
    "kind": "dev",
    "methods": {
      "allowInitializePath((uint32,bytes32,uint64))": {
        "details": "This indicates to the endpoint that the OApp has enabled msgs for this particular path to be received.This defaults to assuming if a peer has been set, its initialized. Can be overridden by the OApp if there is other logic to determine this.",
        "params": {
          "origin": "The origin information containing the source endpoint and sender address."
        },
        "returns": {
          "_0": "Whether the path has been initialized."
        }
      },
      "approvalRequired()": {
        "details": "In the case of default NativeOFTAdapter, approval is not required.",
        "returns": {
          "_0": "bool indicating whether approval of underlying token implementation is required."
        }
      },
      "combineOptions(uint32,uint16,bytes)": {
        "details": "If there is an enforced lzReceive option: - {gasLimit: 200k, msg.value: 1 ether} AND a caller supplies a lzReceive option: {gasLimit: 100k, msg.value: 0.5 ether} - The resulting options will be {gasLimit: 300k, msg.value: 1.5 ether} when the message is executed on the remote lzReceive() function.This presence of duplicated options is handled off-chain in the verifier/executor.",
        "params": {
          "_eid": "The endpoint ID.",
          "_extraOptions": "Additional options passed by the caller.",
          "_msgType": "The OAPP message type."
        },
        "returns": {
          "_0": "options The combination of caller specified options AND enforced options."
        }
      },
      "isComposeMsgSender((uint32,bytes32,uint64),bytes,address)": {
        "details": "_origin The origin information containing the source endpoint and sender address.  - srcEid: The source chain endpoint ID.  - sender: The sender address on the src chain.  - nonce: The nonce of the message._message The lzReceive payload.Applications can optionally choose to implement separate composeMsg senders that are NOT the bridging layer.The default sender IS the OAppReceiver implementer.",
        "params": {
          "_sender": "The sender address."
        },
        "returns": {
          "_0": "isSender Is a valid sender."
        }
      },
      "isPeer(uint32,bytes32)": {
        "details": "Check if the peer is considered 'trusted' by the OApp.Enables OAppPreCrimeSimulator to check whether a potential Inbound Packet is from a trusted source.",
        "params": {
          "_eid": "The endpoint ID to check.",
          "_peer": "The peer to check."
        },
        "returns": {
          "_0": "Whether the peer passed is considered 'trusted' by the OApp."
        }
      },
      "lzReceive((uint32,bytes32,uint64),bytes32,bytes,address,bytes)": {
        "details": "Entry point for receiving messages or packets from the endpoint.Entry point for receiving msg/packet from the LayerZero endpoint.",
        "params": {
          "_executor": "The address of the executor for the received message.",
          "_extraData": "Additional arbitrary data provided by the corresponding executor.",
          "_guid": "The unique identifier for the received LayerZero message.",
          "_message": "The payload of the received message.",
          "_origin": "The origin information containing the source endpoint and sender address.  - srcEid: The source chain endpoint ID.  - sender: The sender address on the src chain.  - nonce: The nonce of the message."
        }
      },
      "lzReceiveAndRevert(((uint32,bytes32,uint64),uint32,address,bytes32,uint256,address,bytes,bytes)[])": {
        "details": "Interface for pre-crime simulations. Always reverts at the end with the simulation results.WARNING: MUST revert at the end with the simulation results.Gives the preCrime implementation the ability to mock sending packets to the lzReceive function, WITHOUT actually executing them.",
        "params": {
          "_packets": "An array of InboundPacket objects representing received packets to be delivered."
        }
      },
      "lzReceiveSimulate((uint32,bytes32,uint64),bytes32,bytes,address,bytes)": {
        "details": "Is effectively an internal function because msg.sender must be address(this). Allows resetting the call stack for 'internal' calls.",
        "params": {
          "_executor": "The executor address for the packet.",
          "_extraData": "Additional data for the packet.",
          "_guid": "The unique identifier of the packet.",
          "_message": "The message payload of the packet.",
          "_origin": "The origin information containing the source endpoint and sender address.  - srcEid: The source chain endpoint ID.  - sender: The sender address on the src chain.  - nonce: The nonce of the message."
        }
      },
      "nextNonce(uint32,bytes32)": {
        "details": "_srcEid The source endpoint ID._sender The sender address.The path nonce starts from 1. If 0 is returned it means that there is NO nonce ordered enforcement.Is required by the off-chain executor to determine the OApp expects msg execution is ordered.This is also enforced by the OApp.By default this is NOT enabled. ie. nextNonce is hardcoded to return 0.",
        "returns": {
          "nonce": "The next nonce."
        }
      },
      "oApp()": {
        "details": "Retrieves the address of the OApp contract.The simulator contract is the base contract for the OApp by default.If the simulator is a separate contract, override this function.",
        "returns": {
          "_0": "The address of the OApp contract."
        }
      },
      "oAppVersion()": {
        "returns": {
          "receiverVersion": "The version of the OAppReceiver.sol implementation.",
          "senderVersion": "The version of the OAppSender.sol implementation."
        }
      },
      "oftVersion()": {
        "details": "interfaceId: This specific interface ID is '0x02e49c2c'.version: Indicates a cross-chain compatible msg encoding with other OFTs.If a new feature is added to the OFT cross-chain msg encoding, the version will be incremented. ie. localOFT version(x,1) CAN send messages to remoteOFT version(x,1)",
        "returns": {
          "interfaceId": "The interface ID.",
          "version": "The version."
        }
      },
      "owner()": {
        "details": "Returns the address of the current owner."
      },
      "quoteOFT((uint32,bytes32,uint256,uint256,bytes,bytes,bytes))": {
        "params": {
          "_sendParam": "The parameters for the send operation."
        },
        "returns": {
          "oftFeeDetails": "The details of OFT fees.",
          "oftLimit": "The OFT limit information.",
          "oftReceipt": "The OFT receipt information."
        }
      },
      "quoteSend((uint32,bytes32,uint256,uint256,bytes,bytes,bytes),bool)": {
        "details": "MessagingFee: LayerZero msg fee  - nativeFee: The native fee.  - lzTokenFee: The lzToken fee.",
        "params": {
          "_payInLzToken": "Flag indicating whether the caller is paying in the LZ token.",
          "_sendParam": "The parameters for the send() operation."
        },
        "returns": {
          "msgFee": "The calculated LayerZero messaging fee from the send() operation."
        }
      },
      "renounceOwnership()": {
        "details": "Leaves the contract without owner. It will not be possible to call `onlyOwner` functions. Can only be called by the current owner. NOTE: Renouncing ownership will leave the contract without an owner, thereby disabling any functionality that is only available to the owner."
      },
      "send((uint32,bytes32,uint256,uint256,bytes,bytes,bytes),(uint256,uint256),address)": {
        "details": "Executes the send operation while ensuring the correct amount of native is sent.MessagingReceipt: LayerZero msg receipt  - guid: The unique identifier for the sent message.  - nonce: The nonce of the sent message.  - fee: The LayerZero fee incurred for the message.",
        "params": {
          "_fee": "The calculated fee for the send() operation.      - nativeFee: The native fee.      - lzTokenFee: The lzToken fee.",
          "_refundAddress": "The address to receive any excess funds.",
          "_sendParam": "The parameters for the send operation."
        },
        "returns": {
          "msgReceipt": "The receipt for the send operation.",
          "oftReceipt": "The OFT receipt information."
        }
      },
      "setDelegate(address)": {
        "details": "Only the owner/admin of the OApp can call this function.Provides the ability for a delegate to set configs, on behalf of the OApp, directly on the Endpoint contract.",
        "params": {
          "_delegate": "The address of the delegate to be set."
        }
      },
      "setEnforcedOptions((uint32,uint16,bytes)[])": {
        "details": "Sets the enforced options for specific endpoint and message type combinations.Only the owner/admin of the OApp can call this function.Provides a way for the OApp to enforce things like paying for PreCrime, AND/OR minimum dst lzReceive gas amounts etc.These enforced options can vary as the potential options/execution on the remote may differ as per the msgType. eg. Amount of lzReceive() gas necessary to deliver a lzCompose() message adds overhead you dont want to pay if you are only making a standard LayerZero message ie. lzReceive() WITHOUT sendCompose().",
        "params": {
          "_enforcedOptions": "An array of EnforcedOptionParam structures specifying enforced options."
        }
      },
      "setMsgInspector(address)": {
        "details": "Sets the message inspector address for the OFT.This is an optional contract that can be used to inspect both 'message' and 'options'.Set it to address(0) to disable it, or set it to a contract address to enable it.",
        "params": {
          "_msgInspector": "The address of the message inspector."
        }
      },
      "setPeer(uint32,bytes32)": {
        "details": "Only the owner/admin of the OApp can call this function.Indicates that the peer is trusted to send LayerZero messages to this OApp.Set this to bytes32(0) to remove the peer address.Peer is a bytes32 to accommodate non-evm chains.",
        "params": {
          "_eid": "The endpoint ID.",
          "_peer": "The address of the peer to be associated with the corresponding endpoint."
        }
      },
      "setPreCrime(address)": {
        "details": "Sets the preCrime contract address.",
        "params": {
          "_preCrime": "The address of the preCrime contract."
        }
      },
      "sharedDecimals()": {
        "details": "Retrieves the shared decimals of the OFT.Sets an implicit cap on the amount of tokens, over uint64.max() will need some sort of outbound cap / totalSupply cap Lowest common decimal denominator between chains. Defaults to 6 decimal places to provide up to 18,446,744,073,709.551615 units (max uint64). For tokens exceeding this totalSupply(), they will need to override the sharedDecimals function with something smaller. ie. 4 sharedDecimals would be 1,844,674,407,370,955.1615",
        "returns": {
          "_0": "The shared decimals of the OFT."
        }
      },
      "token()": {
        "details": "Returns the address of the native token",
        "returns": {
          "_0": "The address of the native token."
        }
      },
      "transferOwnership(address)": {
        "details": "Transfers ownership of the contract to a new account (`newOwner`). Can only be called by the current owner."
      }
    },
    "title": "OFTAdapter Contract",
    "version": 1
  },
  "userdoc": {
    "kind": "user",
    "methods": {
      "allowInitializePath((uint32,bytes32,uint64))": {
        "notice": "Checks if the path initialization is allowed based on the provided origin."
      },
      "approvalRequired()": {
        "notice": "Indicates whether the OFT contract requires approval of the 'token()' to send."
      },
      "combineOptions(uint32,uint16,bytes)": {
        "notice": "Combines options for a given endpoint and message type."
      },
      "endpoint()": {
        "notice": "Retrieves the LayerZero endpoint associated with the OApp."
      },
      "isComposeMsgSender((uint32,bytes32,uint64),bytes,address)": {
        "notice": "Indicates whether an address is an approved composeMsg sender to the Endpoint."
      },
      "nextNonce(uint32,bytes32)": {
        "notice": "Retrieves the next nonce for a given source endpoint and sender address."
      },
      "oAppVersion()": {
        "notice": "Retrieves the OApp version information."
      },
      "oftVersion()": {
        "notice": "Retrieves interfaceID and the version of the OFT."
      },
      "peers(uint32)": {
        "notice": "Retrieves the peer (OApp) associated with a corresponding endpoint."
      },
      "quoteOFT((uint32,bytes32,uint256,uint256,bytes,bytes,bytes))": {
        "notice": "Provides the fee breakdown and settings data for an OFT. Unused in the default implementation."
      },
      "quoteSend((uint32,bytes32,uint256,uint256,bytes,bytes,bytes),bool)": {
        "notice": "Provides a quote for the send() operation."
      },
      "setDelegate(address)": {
        "notice": "Sets the delegate address for the OApp."
      },
      "setPeer(uint32,bytes32)": {
        "notice": "Sets the peer address (OApp instance) for a corresponding endpoint."
      }
    },
    "version": 1
  },
  "storageLayout": {
    "storage": [
      {
        "astId": 4223,
        "contract": "contracts/NativeCampOFTAdapter.sol:NativeCampOFTAdapter",
        "label": "_owner",
        "offset": 0,
        "slot": "0",
        "type": "t_address"
      },
      {
        "astId": 1390,
        "contract": "contracts/NativeCampOFTAdapter.sol:NativeCampOFTAdapter",
        "label": "peers",
        "offset": 0,
        "slot": "1",
        "type": "t_mapping(t_uint32,t_bytes32)"
      },
      {
        "astId": 2166,
        "contract": "contracts/NativeCampOFTAdapter.sol:NativeCampOFTAdapter",
        "label": "preCrime",
        "offset": 0,
        "slot": "2",
        "type": "t_address"
      },
      {
        "astId": 2006,
        "contract": "contracts/NativeCampOFTAdapter.sol:NativeCampOFTAdapter",
        "label": "enforcedOptions",
        "offset": 0,
        "slot": "3",
        "type": "t_mapping(t_uint32,t_mapping(t_uint16,t_bytes_storage))"
      },
      {
        "astId": 3168,
        "contract": "contracts/NativeCampOFTAdapter.sol:NativeCampOFTAdapter",
        "label": "msgInspector",
        "offset": 0,
        "slot": "4",
        "type": "t_address"
      }
    ],
    "types": {
      "t_address": {
        "encoding": "inplace",
        "label": "address",
        "numberOfBytes": "20"
      },
      "t_bytes32": {
        "encoding": "inplace",
        "label": "bytes32",
        "numberOfBytes": "32"
      },
      "t_bytes_storage": {
        "encoding": "bytes",
        "label": "bytes",
        "numberOfBytes": "32"
      },
      "t_mapping(t_uint16,t_bytes_storage)": {
        "encoding": "mapping",
        "key": "t_uint16",
        "label": "mapping(uint16 => bytes)",
        "numberOfBytes": "32",
        "value": "t_bytes_storage"
      },
      "t_mapping(t_uint32,t_bytes32)": {
        "encoding": "mapping",
        "key": "t_uint32",
        "label": "mapping(uint32 => bytes32)",
        "numberOfBytes": "32",
        "value": "t_bytes32"
      },
      "t_mapping(t_uint32,t_mapping(t_uint16,t_bytes_storage))": {
        "encoding": "mapping",
        "key": "t_uint32",
        "label": "mapping(uint32 => mapping(uint16 => bytes))",
        "numberOfBytes": "32",
        "value": "t_mapping(t_uint16,t_bytes_storage)"
      },
      "t_uint16": {
        "encoding": "inplace",
        "label": "uint16",
        "numberOfBytes": "2"
      },
      "t_uint32": {
        "encoding": "inplace",
        "label": "uint32",
        "numberOfBytes": "4"
      }
    }
  }
}